{
	"contracts/Control Structures.sol": {
		"ControlStructures": {
			"abi": [
				{
					"inputs": [
						{
							"internalType": "uint256",
							"name": "time",
							"type": "uint256"
						}
					],
					"name": "AfterHours",
					"type": "error"
				},
				{
					"inputs": [],
					"name": "AtLunch",
					"type": "error"
				},
				{
					"inputs": [
						{
							"internalType": "uint256",
							"name": "_time",
							"type": "uint256"
						}
					],
					"name": "doNotDisturb",
					"outputs": [
						{
							"internalType": "string",
							"name": "result",
							"type": "string"
						}
					],
					"stateMutability": "pure",
					"type": "function"
				},
				{
					"inputs": [
						{
							"internalType": "uint256",
							"name": "_number",
							"type": "uint256"
						}
					],
					"name": "fizzBuzz",
					"outputs": [
						{
							"internalType": "string",
							"name": "response",
							"type": "string"
						}
					],
					"stateMutability": "pure",
					"type": "function"
				}
			],
			"devdoc": {
				"kind": "dev",
				"methods": {},
				"version": 1
			},
			"evm": {
				"assembly": "    /* \"contracts/Control Structures.sol\":60:2218  contract ControlStructures {... */\n  mstore(0x40, 0x80)\n  callvalue\n  dup1\n  iszero\n  tag_1\n  jumpi\n  0x00\n  dup1\n  revert\ntag_1:\n  pop\n  dataSize(sub_0)\n  dup1\n  dataOffset(sub_0)\n  0x00\n  codecopy\n  0x00\n  return\nstop\n\nsub_0: assembly {\n        /* \"contracts/Control Structures.sol\":60:2218  contract ControlStructures {... */\n      mstore(0x40, 0x80)\n      callvalue\n      dup1\n      iszero\n      tag_1\n      jumpi\n      0x00\n      dup1\n      revert\n    tag_1:\n      pop\n      jumpi(tag_2, lt(calldatasize, 0x04))\n      shr(0xe0, calldataload(0x00))\n      dup1\n      0x440c93e2\n      eq\n      tag_3\n      jumpi\n      dup1\n      0xe655b7bb\n      eq\n      tag_4\n      jumpi\n    tag_2:\n      0x00\n      dup1\n      revert\n        /* \"contracts/Control Structures.sol\":281:1063  function fizzBuzz(uint256 _number) public pure returns (string memory response) {... */\n    tag_3:\n      tag_5\n      0x04\n      dup1\n      calldatasize\n      sub\n      dup2\n      add\n      swap1\n      tag_6\n      swap2\n      swap1\n      tag_7\n      jump\t// in\n    tag_6:\n      tag_8\n      jump\t// in\n    tag_5:\n      mload(0x40)\n      tag_9\n      swap2\n      swap1\n      tag_10\n      jump\t// in\n    tag_9:\n      mload(0x40)\n      dup1\n      swap2\n      sub\n      swap1\n      return\n        /* \"contracts/Control Structures.sol\":1138:2215  function doNotDisturb(uint256 _time) public pure returns (string memory result) {... */\n    tag_4:\n      tag_11\n      0x04\n      dup1\n      calldatasize\n      sub\n      dup2\n      add\n      swap1\n      tag_12\n      swap2\n      swap1\n      tag_7\n      jump\t// in\n    tag_12:\n      tag_13\n      jump\t// in\n    tag_11:\n      mload(0x40)\n      tag_14\n      swap2\n      swap1\n      tag_10\n      jump\t// in\n    tag_14:\n      mload(0x40)\n      dup1\n      swap2\n      sub\n      swap1\n      return\n        /* \"contracts/Control Structures.sol\":281:1063  function fizzBuzz(uint256 _number) public pure returns (string memory response) {... */\n    tag_8:\n        /* \"contracts/Control Structures.sol\":337:359  string memory response */\n      0x60\n        /* \"contracts/Control Structures.sol\":452:453  0 */\n      0x00\n        /* \"contracts/Control Structures.sol\":447:448  3 */\n      0x03\n        /* \"contracts/Control Structures.sol\":437:444  _number */\n      dup4\n        /* \"contracts/Control Structures.sol\":437:448  _number % 3 */\n      tag_16\n      swap2\n      swap1\n      tag_17\n      jump\t// in\n    tag_16:\n        /* \"contracts/Control Structures.sol\":437:453  _number % 3 == 0 */\n      eq\n        /* \"contracts/Control Structures.sol\":437:473  _number % 3 == 0 && _number % 5 == 0 */\n      dup1\n      iszero\n      tag_18\n      jumpi\n      pop\n        /* \"contracts/Control Structures.sol\":472:473  0 */\n      0x00\n        /* \"contracts/Control Structures.sol\":467:468  5 */\n      0x05\n        /* \"contracts/Control Structures.sol\":457:464  _number */\n      dup4\n        /* \"contracts/Control Structures.sol\":457:468  _number % 5 */\n      tag_19\n      swap2\n      swap1\n      tag_17\n      jump\t// in\n    tag_19:\n        /* \"contracts/Control Structures.sol\":457:473  _number % 5 == 0 */\n      eq\n        /* \"contracts/Control Structures.sol\":437:473  _number % 3 == 0 && _number % 5 == 0 */\n    tag_18:\n        /* \"contracts/Control Structures.sol\":433:1056  if (_number % 3 == 0 && _number % 5 == 0) {... */\n      iszero\n      tag_20\n      jumpi\n        /* \"contracts/Control Structures.sol\":490:507  return \"FizzBuzz\" */\n      mload(0x40)\n      dup1\n      0x40\n      add\n      0x40\n      mstore\n      dup1\n      0x08\n      dup2\n      mstore\n      0x20\n      add\n      0x46697a7a42757a7a000000000000000000000000000000000000000000000000\n      dup2\n      mstore\n      pop\n      swap1\n      pop\n      jump(tag_15)\n        /* \"contracts/Control Structures.sol\":433:1056  if (_number % 3 == 0 && _number % 5 == 0) {... */\n    tag_20:\n        /* \"contracts/Control Structures.sol\":654:655  0 */\n      0x00\n        /* \"contracts/Control Structures.sol\":649:650  3 */\n      0x03\n        /* \"contracts/Control Structures.sol\":639:646  _number */\n      dup4\n        /* \"contracts/Control Structures.sol\":639:650  _number % 3 */\n      tag_22\n      swap2\n      swap1\n      tag_17\n      jump\t// in\n    tag_22:\n        /* \"contracts/Control Structures.sol\":639:655  _number % 3 == 0 */\n      sub\n        /* \"contracts/Control Structures.sol\":635:1056  if (_number % 3 == 0) {... */\n      tag_23\n      jumpi\n        /* \"contracts/Control Structures.sol\":672:685  return \"Fizz\" */\n      mload(0x40)\n      dup1\n      0x40\n      add\n      0x40\n      mstore\n      dup1\n      0x04\n      dup2\n      mstore\n      0x20\n      add\n      0x46697a7a00000000000000000000000000000000000000000000000000000000\n      dup2\n      mstore\n      pop\n      swap1\n      pop\n      jump(tag_15)\n        /* \"contracts/Control Structures.sol\":635:1056  if (_number % 3 == 0) {... */\n    tag_23:\n        /* \"contracts/Control Structures.sol\":817:818  0 */\n      0x00\n        /* \"contracts/Control Structures.sol\":812:813  5 */\n      0x05\n        /* \"contracts/Control Structures.sol\":802:809  _number */\n      dup4\n        /* \"contracts/Control Structures.sol\":802:813  _number % 5 */\n      tag_25\n      swap2\n      swap1\n      tag_17\n      jump\t// in\n    tag_25:\n        /* \"contracts/Control Structures.sol\":802:818  _number % 5 == 0 */\n      sub\n        /* \"contracts/Control Structures.sol\":798:1056  if (_number % 5 == 0) {... */\n      tag_26\n      jumpi\n        /* \"contracts/Control Structures.sol\":835:848  return \"Buzz\" */\n      mload(0x40)\n      dup1\n      0x40\n      add\n      0x40\n      mstore\n      dup1\n      0x04\n      dup2\n      mstore\n      0x20\n      add\n      0x42757a7a00000000000000000000000000000000000000000000000000000000\n      dup2\n      mstore\n      pop\n      swap1\n      pop\n      jump(tag_15)\n        /* \"contracts/Control Structures.sol\":798:1056  if (_number % 5 == 0) {... */\n    tag_26:\n        /* \"contracts/Control Structures.sol\":978:992  return \"Splat\" */\n      mload(0x40)\n      dup1\n      0x40\n      add\n      0x40\n      mstore\n      dup1\n      0x05\n      dup2\n      mstore\n      0x20\n      add\n      0x53706c6174000000000000000000000000000000000000000000000000000000\n      dup2\n      mstore\n      pop\n      swap1\n      pop\n        /* \"contracts/Control Structures.sol\":281:1063  function fizzBuzz(uint256 _number) public pure returns (string memory response) {... */\n    tag_15:\n      swap2\n      swap1\n      pop\n      jump\t// out\n        /* \"contracts/Control Structures.sol\":1138:2215  function doNotDisturb(uint256 _time) public pure returns (string memory result) {... */\n    tag_13:\n        /* \"contracts/Control Structures.sol\":1196:1216  string memory result */\n      0x60\n        /* \"contracts/Control Structures.sol\":1318:1322  2400 */\n      0x0960\n        /* \"contracts/Control Structures.sol\":1310:1315  _time */\n      dup3\n        /* \"contracts/Control Structures.sol\":1310:1322  _time < 2400 */\n      lt\n        /* \"contracts/Control Structures.sol\":1303:1323  assert(_time < 2400) */\n      tag_29\n      jumpi\n      tag_30\n      tag_31\n      jump\t// in\n    tag_30:\n    tag_29:\n        /* \"contracts/Control Structures.sol\":1443:1447  2200 */\n      0x0898\n        /* \"contracts/Control Structures.sol\":1435:1440  _time */\n      dup3\n        /* \"contracts/Control Structures.sol\":1435:1447  _time > 2200 */\n      gt\n        /* \"contracts/Control Structures.sol\":1435:1462  _time > 2200 || _time < 800 */\n      dup1\n      tag_32\n      jumpi\n      pop\n        /* \"contracts/Control Structures.sol\":1459:1462  800 */\n      0x0320\n        /* \"contracts/Control Structures.sol\":1451:1456  _time */\n      dup3\n        /* \"contracts/Control Structures.sol\":1451:1462  _time < 800 */\n      lt\n        /* \"contracts/Control Structures.sol\":1435:1462  _time > 2200 || _time < 800 */\n    tag_32:\n        /* \"contracts/Control Structures.sol\":1431:2208  if (_time > 2200 || _time < 800) {... */\n      iszero\n      tag_33\n      jumpi\n        /* \"contracts/Control Structures.sol\":1497:1502  _time */\n      dup2\n        /* \"contracts/Control Structures.sol\":1486:1503  AfterHours(_time) */\n      mload(0x40)\n      0xa4bf701e00000000000000000000000000000000000000000000000000000000\n      dup2\n      mstore\n      0x04\n      add\n      tag_34\n      swap2\n      swap1\n      tag_35\n      jump\t// in\n    tag_34:\n      mload(0x40)\n      dup1\n      swap2\n      sub\n      swap1\n      revert\n        /* \"contracts/Control Structures.sol\":1431:2208  if (_time > 2200 || _time < 800) {... */\n    tag_33:\n        /* \"contracts/Control Structures.sol\":1613:1617  1200 */\n      0x04b0\n        /* \"contracts/Control Structures.sol\":1604:1609  _time */\n      dup3\n        /* \"contracts/Control Structures.sol\":1604:1617  _time >= 1200 */\n      lt\n      iszero\n        /* \"contracts/Control Structures.sol\":1604:1634  _time >= 1200 && _time <= 1299 */\n      dup1\n      iszero\n      tag_37\n      jumpi\n      pop\n        /* \"contracts/Control Structures.sol\":1630:1634  1299 */\n      0x0513\n        /* \"contracts/Control Structures.sol\":1621:1626  _time */\n      dup3\n        /* \"contracts/Control Structures.sol\":1621:1634  _time <= 1299 */\n      gt\n      iszero\n        /* \"contracts/Control Structures.sol\":1604:1634  _time >= 1200 && _time <= 1299 */\n    tag_37:\n        /* \"contracts/Control Structures.sol\":1600:2208  if (_time >= 1200 && _time <= 1299) {... */\n      iszero\n      tag_38\n      jumpi\n        /* \"contracts/Control Structures.sol\":1658:1667  AtLunch() */\n      mload(0x40)\n      0x08a3648800000000000000000000000000000000000000000000000000000000\n      dup2\n      mstore\n      0x04\n      add\n      mload(0x40)\n      dup1\n      swap2\n      sub\n      swap1\n      revert\n        /* \"contracts/Control Structures.sol\":1600:2208  if (_time >= 1200 && _time <= 1299) {... */\n    tag_38:\n        /* \"contracts/Control Structures.sol\":1773:1776  800 */\n      0x0320\n        /* \"contracts/Control Structures.sol\":1764:1769  _time */\n      dup3\n        /* \"contracts/Control Structures.sol\":1764:1776  _time >= 800 */\n      lt\n      iszero\n        /* \"contracts/Control Structures.sol\":1764:1793  _time >= 800 && _time <= 1199 */\n      dup1\n      iszero\n      tag_40\n      jumpi\n      pop\n        /* \"contracts/Control Structures.sol\":1789:1793  1199 */\n      0x04af\n        /* \"contracts/Control Structures.sol\":1780:1785  _time */\n      dup3\n        /* \"contracts/Control Structures.sol\":1780:1793  _time <= 1199 */\n      gt\n      iszero\n        /* \"contracts/Control Structures.sol\":1764:1793  _time >= 800 && _time <= 1199 */\n    tag_40:\n        /* \"contracts/Control Structures.sol\":1760:2208  if (_time >= 800 && _time <= 1199) {... */\n      iszero\n      tag_41\n      jumpi\n        /* \"contracts/Control Structures.sol\":1810:1827  return \"Morning!\" */\n      mload(0x40)\n      dup1\n      0x40\n      add\n      0x40\n      mstore\n      dup1\n      0x08\n      dup2\n      mstore\n      0x20\n      add\n      0x4d6f726e696e6721000000000000000000000000000000000000000000000000\n      dup2\n      mstore\n      pop\n      swap1\n      pop\n      jump(tag_28)\n        /* \"contracts/Control Structures.sol\":1760:2208  if (_time >= 800 && _time <= 1199) {... */\n    tag_41:\n        /* \"contracts/Control Structures.sol\":1926:1930  1300 */\n      0x0514\n        /* \"contracts/Control Structures.sol\":1917:1922  _time */\n      dup3\n        /* \"contracts/Control Structures.sol\":1917:1930  _time >= 1300 */\n      lt\n      iszero\n        /* \"contracts/Control Structures.sol\":1917:1947  _time >= 1300 && _time <= 1799 */\n      dup1\n      iszero\n      tag_43\n      jumpi\n      pop\n        /* \"contracts/Control Structures.sol\":1943:1947  1799 */\n      0x0707\n        /* \"contracts/Control Structures.sol\":1934:1939  _time */\n      dup3\n        /* \"contracts/Control Structures.sol\":1934:1947  _time <= 1799 */\n      gt\n      iszero\n        /* \"contracts/Control Structures.sol\":1917:1947  _time >= 1300 && _time <= 1799 */\n    tag_43:\n        /* \"contracts/Control Structures.sol\":1913:2208  if (_time >= 1300 && _time <= 1799) {... */\n      iszero\n      tag_44\n      jumpi\n        /* \"contracts/Control Structures.sol\":1964:1983  return \"Afternoon!\" */\n      mload(0x40)\n      dup1\n      0x40\n      add\n      0x40\n      mstore\n      dup1\n      0x0a\n      dup2\n      mstore\n      0x20\n      add\n      0x41667465726e6f6f6e2100000000000000000000000000000000000000000000\n      dup2\n      mstore\n      pop\n      swap1\n      pop\n      jump(tag_28)\n        /* \"contracts/Control Structures.sol\":1913:2208  if (_time >= 1300 && _time <= 1799) {... */\n    tag_44:\n        /* \"contracts/Control Structures.sol\":2083:2087  1800 */\n      0x0708\n        /* \"contracts/Control Structures.sol\":2074:2079  _time */\n      dup3\n        /* \"contracts/Control Structures.sol\":2074:2087  _time >= 1800 */\n      lt\n      iszero\n        /* \"contracts/Control Structures.sol\":2074:2104  _time >= 1800 && _time <= 2200 */\n      dup1\n      iszero\n      tag_46\n      jumpi\n      pop\n        /* \"contracts/Control Structures.sol\":2100:2104  2200 */\n      0x0898\n        /* \"contracts/Control Structures.sol\":2091:2096  _time */\n      dup3\n        /* \"contracts/Control Structures.sol\":2091:2104  _time <= 2200 */\n      gt\n      iszero\n        /* \"contracts/Control Structures.sol\":2074:2104  _time >= 1800 && _time <= 2200 */\n    tag_46:\n        /* \"contracts/Control Structures.sol\":2070:2208  if (_time >= 1800 && _time <= 2200) {... */\n      iszero\n      tag_47\n      jumpi\n        /* \"contracts/Control Structures.sol\":2121:2138  return \"Evening!\" */\n      mload(0x40)\n      dup1\n      0x40\n      add\n      0x40\n      mstore\n      dup1\n      0x08\n      dup2\n      mstore\n      0x20\n      add\n      0x4576656e696e6721000000000000000000000000000000000000000000000000\n      dup2\n      mstore\n      pop\n      swap1\n      pop\n      jump(tag_28)\n        /* \"contracts/Control Structures.sol\":2070:2208  if (_time >= 1800 && _time <= 2200) {... */\n    tag_47:\n        /* \"contracts/Control Structures.sol\":1138:2215  function doNotDisturb(uint256 _time) public pure returns (string memory result) {... */\n    tag_28:\n      swap2\n      swap1\n      pop\n      jump\t// out\n        /* \"#utility.yul\":88:205   */\n    tag_49:\n        /* \"#utility.yul\":197:198   */\n      0x00\n        /* \"#utility.yul\":194:195   */\n      dup1\n        /* \"#utility.yul\":187:199   */\n      revert\n        /* \"#utility.yul\":334:411   */\n    tag_51:\n        /* \"#utility.yul\":371:378   */\n      0x00\n        /* \"#utility.yul\":400:405   */\n      dup2\n        /* \"#utility.yul\":389:405   */\n      swap1\n      pop\n        /* \"#utility.yul\":334:411   */\n      swap2\n      swap1\n      pop\n      jump\t// out\n        /* \"#utility.yul\":417:539   */\n    tag_52:\n        /* \"#utility.yul\":490:514   */\n      tag_67\n        /* \"#utility.yul\":508:513   */\n      dup2\n        /* \"#utility.yul\":490:514   */\n      tag_51\n      jump\t// in\n    tag_67:\n        /* \"#utility.yul\":483:488   */\n      dup2\n        /* \"#utility.yul\":480:515   */\n      eq\n        /* \"#utility.yul\":470:533   */\n      tag_68\n      jumpi\n        /* \"#utility.yul\":529:530   */\n      0x00\n        /* \"#utility.yul\":526:527   */\n      dup1\n        /* \"#utility.yul\":519:531   */\n      revert\n        /* \"#utility.yul\":470:533   */\n    tag_68:\n        /* \"#utility.yul\":417:539   */\n      pop\n      jump\t// out\n        /* \"#utility.yul\":545:684   */\n    tag_53:\n        /* \"#utility.yul\":591:596   */\n      0x00\n        /* \"#utility.yul\":629:635   */\n      dup2\n        /* \"#utility.yul\":616:636   */\n      calldataload\n        /* \"#utility.yul\":607:636   */\n      swap1\n      pop\n        /* \"#utility.yul\":645:678   */\n      tag_70\n        /* \"#utility.yul\":672:677   */\n      dup2\n        /* \"#utility.yul\":645:678   */\n      tag_52\n      jump\t// in\n    tag_70:\n        /* \"#utility.yul\":545:684   */\n      swap3\n      swap2\n      pop\n      pop\n      jump\t// out\n        /* \"#utility.yul\":690:1019   */\n    tag_7:\n        /* \"#utility.yul\":749:755   */\n      0x00\n        /* \"#utility.yul\":798:800   */\n      0x20\n        /* \"#utility.yul\":786:795   */\n      dup3\n        /* \"#utility.yul\":777:784   */\n      dup5\n        /* \"#utility.yul\":773:796   */\n      sub\n        /* \"#utility.yul\":769:801   */\n      slt\n        /* \"#utility.yul\":766:885   */\n      iszero\n      tag_72\n      jumpi\n        /* \"#utility.yul\":804:883   */\n      tag_73\n      tag_49\n      jump\t// in\n    tag_73:\n        /* \"#utility.yul\":766:885   */\n    tag_72:\n        /* \"#utility.yul\":924:925   */\n      0x00\n        /* \"#utility.yul\":949:1002   */\n      tag_74\n        /* \"#utility.yul\":994:1001   */\n      dup5\n        /* \"#utility.yul\":985:991   */\n      dup3\n        /* \"#utility.yul\":974:983   */\n      dup6\n        /* \"#utility.yul\":970:992   */\n      add\n        /* \"#utility.yul\":949:1002   */\n      tag_53\n      jump\t// in\n    tag_74:\n        /* \"#utility.yul\":939:1002   */\n      swap2\n      pop\n        /* \"#utility.yul\":895:1012   */\n      pop\n        /* \"#utility.yul\":690:1019   */\n      swap3\n      swap2\n      pop\n      pop\n      jump\t// out\n        /* \"#utility.yul\":1025:1124   */\n    tag_54:\n        /* \"#utility.yul\":1077:1083   */\n      0x00\n        /* \"#utility.yul\":1111:1116   */\n      dup2\n        /* \"#utility.yul\":1105:1117   */\n      mload\n        /* \"#utility.yul\":1095:1117   */\n      swap1\n      pop\n        /* \"#utility.yul\":1025:1124   */\n      swap2\n      swap1\n      pop\n      jump\t// out\n        /* \"#utility.yul\":1130:1299   */\n    tag_55:\n        /* \"#utility.yul\":1214:1225   */\n      0x00\n        /* \"#utility.yul\":1248:1254   */\n      dup3\n        /* \"#utility.yul\":1243:1246   */\n      dup3\n        /* \"#utility.yul\":1236:1255   */\n      mstore\n        /* \"#utility.yul\":1288:1292   */\n      0x20\n        /* \"#utility.yul\":1283:1286   */\n      dup3\n        /* \"#utility.yul\":1279:1293   */\n      add\n        /* \"#utility.yul\":1264:1293   */\n      swap1\n      pop\n        /* \"#utility.yul\":1130:1299   */\n      swap3\n      swap2\n      pop\n      pop\n      jump\t// out\n        /* \"#utility.yul\":1305:1551   */\n    tag_56:\n        /* \"#utility.yul\":1386:1387   */\n      0x00\n        /* \"#utility.yul\":1396:1509   */\n    tag_78:\n        /* \"#utility.yul\":1410:1416   */\n      dup4\n        /* \"#utility.yul\":1407:1408   */\n      dup2\n        /* \"#utility.yul\":1404:1417   */\n      lt\n        /* \"#utility.yul\":1396:1509   */\n      iszero\n      tag_80\n      jumpi\n        /* \"#utility.yul\":1495:1496   */\n      dup1\n        /* \"#utility.yul\":1490:1493   */\n      dup3\n        /* \"#utility.yul\":1486:1497   */\n      add\n        /* \"#utility.yul\":1480:1498   */\n      mload\n        /* \"#utility.yul\":1476:1477   */\n      dup2\n        /* \"#utility.yul\":1471:1474   */\n      dup5\n        /* \"#utility.yul\":1467:1478   */\n      add\n        /* \"#utility.yul\":1460:1499   */\n      mstore\n        /* \"#utility.yul\":1432:1434   */\n      0x20\n        /* \"#utility.yul\":1429:1430   */\n      dup2\n        /* \"#utility.yul\":1425:1435   */\n      add\n        /* \"#utility.yul\":1420:1435   */\n      swap1\n      pop\n        /* \"#utility.yul\":1396:1509   */\n      jump(tag_78)\n    tag_80:\n        /* \"#utility.yul\":1543:1544   */\n      0x00\n        /* \"#utility.yul\":1534:1540   */\n      dup5\n        /* \"#utility.yul\":1529:1532   */\n      dup5\n        /* \"#utility.yul\":1525:1541   */\n      add\n        /* \"#utility.yul\":1518:1545   */\n      mstore\n        /* \"#utility.yul\":1367:1551   */\n      pop\n        /* \"#utility.yul\":1305:1551   */\n      pop\n      pop\n      pop\n      jump\t// out\n        /* \"#utility.yul\":1557:1659   */\n    tag_57:\n        /* \"#utility.yul\":1598:1604   */\n      0x00\n        /* \"#utility.yul\":1649:1651   */\n      0x1f\n        /* \"#utility.yul\":1645:1652   */\n      not\n        /* \"#utility.yul\":1640:1642   */\n      0x1f\n        /* \"#utility.yul\":1633:1638   */\n      dup4\n        /* \"#utility.yul\":1629:1643   */\n      add\n        /* \"#utility.yul\":1625:1653   */\n      and\n        /* \"#utility.yul\":1615:1653   */\n      swap1\n      pop\n        /* \"#utility.yul\":1557:1659   */\n      swap2\n      swap1\n      pop\n      jump\t// out\n        /* \"#utility.yul\":1665:2042   */\n    tag_58:\n        /* \"#utility.yul\":1753:1756   */\n      0x00\n        /* \"#utility.yul\":1781:1820   */\n      tag_83\n        /* \"#utility.yul\":1814:1819   */\n      dup3\n        /* \"#utility.yul\":1781:1820   */\n      tag_54\n      jump\t// in\n    tag_83:\n        /* \"#utility.yul\":1836:1907   */\n      tag_84\n        /* \"#utility.yul\":1900:1906   */\n      dup2\n        /* \"#utility.yul\":1895:1898   */\n      dup6\n        /* \"#utility.yul\":1836:1907   */\n      tag_55\n      jump\t// in\n    tag_84:\n        /* \"#utility.yul\":1829:1907   */\n      swap4\n      pop\n        /* \"#utility.yul\":1916:1981   */\n      tag_85\n        /* \"#utility.yul\":1974:1980   */\n      dup2\n        /* \"#utility.yul\":1969:1972   */\n      dup6\n        /* \"#utility.yul\":1962:1966   */\n      0x20\n        /* \"#utility.yul\":1955:1960   */\n      dup7\n        /* \"#utility.yul\":1951:1967   */\n      add\n        /* \"#utility.yul\":1916:1981   */\n      tag_56\n      jump\t// in\n    tag_85:\n        /* \"#utility.yul\":2006:2035   */\n      tag_86\n        /* \"#utility.yul\":2028:2034   */\n      dup2\n        /* \"#utility.yul\":2006:2035   */\n      tag_57\n      jump\t// in\n    tag_86:\n        /* \"#utility.yul\":2001:2004   */\n      dup5\n        /* \"#utility.yul\":1997:2036   */\n      add\n        /* \"#utility.yul\":1990:2036   */\n      swap2\n      pop\n        /* \"#utility.yul\":1757:2042   */\n      pop\n        /* \"#utility.yul\":1665:2042   */\n      swap3\n      swap2\n      pop\n      pop\n      jump\t// out\n        /* \"#utility.yul\":2048:2361   */\n    tag_10:\n        /* \"#utility.yul\":2161:2165   */\n      0x00\n        /* \"#utility.yul\":2199:2201   */\n      0x20\n        /* \"#utility.yul\":2188:2197   */\n      dup3\n        /* \"#utility.yul\":2184:2202   */\n      add\n        /* \"#utility.yul\":2176:2202   */\n      swap1\n      pop\n        /* \"#utility.yul\":2248:2257   */\n      dup2\n        /* \"#utility.yul\":2242:2246   */\n      dup2\n        /* \"#utility.yul\":2238:2258   */\n      sub\n        /* \"#utility.yul\":2234:2235   */\n      0x00\n        /* \"#utility.yul\":2223:2232   */\n      dup4\n        /* \"#utility.yul\":2219:2236   */\n      add\n        /* \"#utility.yul\":2212:2259   */\n      mstore\n        /* \"#utility.yul\":2276:2354   */\n      tag_88\n        /* \"#utility.yul\":2349:2353   */\n      dup2\n        /* \"#utility.yul\":2340:2346   */\n      dup5\n        /* \"#utility.yul\":2276:2354   */\n      tag_58\n      jump\t// in\n    tag_88:\n        /* \"#utility.yul\":2268:2354   */\n      swap1\n      pop\n        /* \"#utility.yul\":2048:2361   */\n      swap3\n      swap2\n      pop\n      pop\n      jump\t// out\n        /* \"#utility.yul\":2367:2547   */\n    tag_59:\n        /* \"#utility.yul\":2415:2492   */\n      0x4e487b7100000000000000000000000000000000000000000000000000000000\n        /* \"#utility.yul\":2412:2413   */\n      0x00\n        /* \"#utility.yul\":2405:2493   */\n      mstore\n        /* \"#utility.yul\":2512:2516   */\n      0x12\n        /* \"#utility.yul\":2509:2510   */\n      0x04\n        /* \"#utility.yul\":2502:2517   */\n      mstore\n        /* \"#utility.yul\":2536:2540   */\n      0x24\n        /* \"#utility.yul\":2533:2534   */\n      0x00\n        /* \"#utility.yul\":2526:2541   */\n      revert\n        /* \"#utility.yul\":2553:2729   */\n    tag_17:\n        /* \"#utility.yul\":2585:2586   */\n      0x00\n        /* \"#utility.yul\":2602:2622   */\n      tag_91\n        /* \"#utility.yul\":2620:2621   */\n      dup3\n        /* \"#utility.yul\":2602:2622   */\n      tag_51\n      jump\t// in\n    tag_91:\n        /* \"#utility.yul\":2597:2622   */\n      swap2\n      pop\n        /* \"#utility.yul\":2636:2656   */\n      tag_92\n        /* \"#utility.yul\":2654:2655   */\n      dup4\n        /* \"#utility.yul\":2636:2656   */\n      tag_51\n      jump\t// in\n    tag_92:\n        /* \"#utility.yul\":2631:2656   */\n      swap3\n      pop\n        /* \"#utility.yul\":2675:2676   */\n      dup3\n        /* \"#utility.yul\":2665:2700   */\n      tag_93\n      jumpi\n        /* \"#utility.yul\":2680:2698   */\n      tag_94\n      tag_59\n      jump\t// in\n    tag_94:\n        /* \"#utility.yul\":2665:2700   */\n    tag_93:\n        /* \"#utility.yul\":2721:2722   */\n      dup3\n        /* \"#utility.yul\":2718:2719   */\n      dup3\n        /* \"#utility.yul\":2714:2723   */\n      mod\n        /* \"#utility.yul\":2709:2723   */\n      swap1\n      pop\n        /* \"#utility.yul\":2553:2729   */\n      swap3\n      swap2\n      pop\n      pop\n      jump\t// out\n        /* \"#utility.yul\":2735:2915   */\n    tag_31:\n        /* \"#utility.yul\":2783:2860   */\n      0x4e487b7100000000000000000000000000000000000000000000000000000000\n        /* \"#utility.yul\":2780:2781   */\n      0x00\n        /* \"#utility.yul\":2773:2861   */\n      mstore\n        /* \"#utility.yul\":2880:2884   */\n      0x01\n        /* \"#utility.yul\":2877:2878   */\n      0x04\n        /* \"#utility.yul\":2870:2885   */\n      mstore\n        /* \"#utility.yul\":2904:2908   */\n      0x24\n        /* \"#utility.yul\":2901:2902   */\n      0x00\n        /* \"#utility.yul\":2894:2909   */\n      revert\n        /* \"#utility.yul\":2921:3039   */\n    tag_60:\n        /* \"#utility.yul\":3008:3032   */\n      tag_97\n        /* \"#utility.yul\":3026:3031   */\n      dup2\n        /* \"#utility.yul\":3008:3032   */\n      tag_51\n      jump\t// in\n    tag_97:\n        /* \"#utility.yul\":3003:3006   */\n      dup3\n        /* \"#utility.yul\":2996:3033   */\n      mstore\n        /* \"#utility.yul\":2921:3039   */\n      pop\n      pop\n      jump\t// out\n        /* \"#utility.yul\":3045:3267   */\n    tag_35:\n        /* \"#utility.yul\":3138:3142   */\n      0x00\n        /* \"#utility.yul\":3176:3178   */\n      0x20\n        /* \"#utility.yul\":3165:3174   */\n      dup3\n        /* \"#utility.yul\":3161:3179   */\n      add\n        /* \"#utility.yul\":3153:3179   */\n      swap1\n      pop\n        /* \"#utility.yul\":3189:3260   */\n      tag_99\n        /* \"#utility.yul\":3257:3258   */\n      0x00\n        /* \"#utility.yul\":3246:3255   */\n      dup4\n        /* \"#utility.yul\":3242:3259   */\n      add\n        /* \"#utility.yul\":3233:3239   */\n      dup5\n        /* \"#utility.yul\":3189:3260   */\n      tag_60\n      jump\t// in\n    tag_99:\n        /* \"#utility.yul\":3045:3267   */\n      swap3\n      swap2\n      pop\n      pop\n      jump\t// out\n\n    auxdata: 0xa2646970667358221220e7c1323d5433e11bc3b12fbb9c68f7366d23a6f4ccc07935315f35d76258113364736f6c63430008110033\n}\n",
				"bytecode": {
					"linkReferences": {},
					"object": "608060405234801561001057600080fd5b506105aa806100206000396000f3fe608060405234801561001057600080fd5b50600436106100365760003560e01c8063440c93e21461003b578063e655b7bb1461006b575b600080fd5b610055600480360381019061005091906103dc565b61009b565b6040516100629190610499565b60405180910390f35b610085600480360381019061008091906103dc565b6101e7565b6040516100929190610499565b60405180910390f35b606060006003836100ac91906104ea565b1480156100c5575060006005836100c391906104ea565b145b15610107576040518060400160405280600881526020017f46697a7a42757a7a00000000000000000000000000000000000000000000000081525090506101e2565b600060038361011691906104ea565b03610158576040518060400160405280600481526020017f46697a7a0000000000000000000000000000000000000000000000000000000081525090506101e2565b600060058361016791906104ea565b036101a9576040518060400160405280600481526020017f42757a7a0000000000000000000000000000000000000000000000000000000081525090506101e2565b6040518060400160405280600581526020017f53706c617400000000000000000000000000000000000000000000000000000081525090505b919050565b606061096082106101fb576101fa61051b565b5b61089882118061020c575061032082105b1561024e57816040517fa4bf701e0000000000000000000000000000000000000000000000000000000081526004016102459190610559565b60405180910390fd5b6104b0821015801561026257506105138211155b15610299576040517f08a3648800000000000000000000000000000000000000000000000000000000815260040160405180910390fd5b61032082101580156102ad57506104af8211155b156102ef576040518060400160405280600881526020017f4d6f726e696e6721000000000000000000000000000000000000000000000000815250905061039c565b610514821015801561030357506107078211155b15610345576040518060400160405280600a81526020017f41667465726e6f6f6e2100000000000000000000000000000000000000000000815250905061039c565b610708821015801561035957506108988211155b1561039b576040518060400160405280600881526020017f4576656e696e6721000000000000000000000000000000000000000000000000815250905061039c565b5b919050565b600080fd5b6000819050919050565b6103b9816103a6565b81146103c457600080fd5b50565b6000813590506103d6816103b0565b92915050565b6000602082840312156103f2576103f16103a1565b5b6000610400848285016103c7565b91505092915050565b600081519050919050565b600082825260208201905092915050565b60005b83811015610443578082015181840152602081019050610428565b60008484015250505050565b6000601f19601f8301169050919050565b600061046b82610409565b6104758185610414565b9350610485818560208601610425565b61048e8161044f565b840191505092915050565b600060208201905081810360008301526104b38184610460565b905092915050565b7f4e487b7100000000000000000000000000000000000000000000000000000000600052601260045260246000fd5b60006104f5826103a6565b9150610500836103a6565b9250826105105761050f6104bb565b5b828206905092915050565b7f4e487b7100000000000000000000000000000000000000000000000000000000600052600160045260246000fd5b610553816103a6565b82525050565b600060208201905061056e600083018461054a565b9291505056fea2646970667358221220e7c1323d5433e11bc3b12fbb9c68f7366d23a6f4ccc07935315f35d76258113364736f6c63430008110033",
					"opcodes": "PUSH1 0x80 PUSH1 0x40 MSTORE CALLVALUE DUP1 ISZERO PUSH2 0x10 JUMPI PUSH1 0x0 DUP1 REVERT JUMPDEST POP PUSH2 0x5AA DUP1 PUSH2 0x20 PUSH1 0x0 CODECOPY PUSH1 0x0 RETURN INVALID PUSH1 0x80 PUSH1 0x40 MSTORE CALLVALUE DUP1 ISZERO PUSH2 0x10 JUMPI PUSH1 0x0 DUP1 REVERT JUMPDEST POP PUSH1 0x4 CALLDATASIZE LT PUSH2 0x36 JUMPI PUSH1 0x0 CALLDATALOAD PUSH1 0xE0 SHR DUP1 PUSH4 0x440C93E2 EQ PUSH2 0x3B JUMPI DUP1 PUSH4 0xE655B7BB EQ PUSH2 0x6B JUMPI JUMPDEST PUSH1 0x0 DUP1 REVERT JUMPDEST PUSH2 0x55 PUSH1 0x4 DUP1 CALLDATASIZE SUB DUP2 ADD SWAP1 PUSH2 0x50 SWAP2 SWAP1 PUSH2 0x3DC JUMP JUMPDEST PUSH2 0x9B JUMP JUMPDEST PUSH1 0x40 MLOAD PUSH2 0x62 SWAP2 SWAP1 PUSH2 0x499 JUMP JUMPDEST PUSH1 0x40 MLOAD DUP1 SWAP2 SUB SWAP1 RETURN JUMPDEST PUSH2 0x85 PUSH1 0x4 DUP1 CALLDATASIZE SUB DUP2 ADD SWAP1 PUSH2 0x80 SWAP2 SWAP1 PUSH2 0x3DC JUMP JUMPDEST PUSH2 0x1E7 JUMP JUMPDEST PUSH1 0x40 MLOAD PUSH2 0x92 SWAP2 SWAP1 PUSH2 0x499 JUMP JUMPDEST PUSH1 0x40 MLOAD DUP1 SWAP2 SUB SWAP1 RETURN JUMPDEST PUSH1 0x60 PUSH1 0x0 PUSH1 0x3 DUP4 PUSH2 0xAC SWAP2 SWAP1 PUSH2 0x4EA JUMP JUMPDEST EQ DUP1 ISZERO PUSH2 0xC5 JUMPI POP PUSH1 0x0 PUSH1 0x5 DUP4 PUSH2 0xC3 SWAP2 SWAP1 PUSH2 0x4EA JUMP JUMPDEST EQ JUMPDEST ISZERO PUSH2 0x107 JUMPI PUSH1 0x40 MLOAD DUP1 PUSH1 0x40 ADD PUSH1 0x40 MSTORE DUP1 PUSH1 0x8 DUP2 MSTORE PUSH1 0x20 ADD PUSH32 0x46697A7A42757A7A000000000000000000000000000000000000000000000000 DUP2 MSTORE POP SWAP1 POP PUSH2 0x1E2 JUMP JUMPDEST PUSH1 0x0 PUSH1 0x3 DUP4 PUSH2 0x116 SWAP2 SWAP1 PUSH2 0x4EA JUMP JUMPDEST SUB PUSH2 0x158 JUMPI PUSH1 0x40 MLOAD DUP1 PUSH1 0x40 ADD PUSH1 0x40 MSTORE DUP1 PUSH1 0x4 DUP2 MSTORE PUSH1 0x20 ADD PUSH32 0x46697A7A00000000000000000000000000000000000000000000000000000000 DUP2 MSTORE POP SWAP1 POP PUSH2 0x1E2 JUMP JUMPDEST PUSH1 0x0 PUSH1 0x5 DUP4 PUSH2 0x167 SWAP2 SWAP1 PUSH2 0x4EA JUMP JUMPDEST SUB PUSH2 0x1A9 JUMPI PUSH1 0x40 MLOAD DUP1 PUSH1 0x40 ADD PUSH1 0x40 MSTORE DUP1 PUSH1 0x4 DUP2 MSTORE PUSH1 0x20 ADD PUSH32 0x42757A7A00000000000000000000000000000000000000000000000000000000 DUP2 MSTORE POP SWAP1 POP PUSH2 0x1E2 JUMP JUMPDEST PUSH1 0x40 MLOAD DUP1 PUSH1 0x40 ADD PUSH1 0x40 MSTORE DUP1 PUSH1 0x5 DUP2 MSTORE PUSH1 0x20 ADD PUSH32 0x53706C6174000000000000000000000000000000000000000000000000000000 DUP2 MSTORE POP SWAP1 POP JUMPDEST SWAP2 SWAP1 POP JUMP JUMPDEST PUSH1 0x60 PUSH2 0x960 DUP3 LT PUSH2 0x1FB JUMPI PUSH2 0x1FA PUSH2 0x51B JUMP JUMPDEST JUMPDEST PUSH2 0x898 DUP3 GT DUP1 PUSH2 0x20C JUMPI POP PUSH2 0x320 DUP3 LT JUMPDEST ISZERO PUSH2 0x24E JUMPI DUP2 PUSH1 0x40 MLOAD PUSH32 0xA4BF701E00000000000000000000000000000000000000000000000000000000 DUP2 MSTORE PUSH1 0x4 ADD PUSH2 0x245 SWAP2 SWAP1 PUSH2 0x559 JUMP JUMPDEST PUSH1 0x40 MLOAD DUP1 SWAP2 SUB SWAP1 REVERT JUMPDEST PUSH2 0x4B0 DUP3 LT ISZERO DUP1 ISZERO PUSH2 0x262 JUMPI POP PUSH2 0x513 DUP3 GT ISZERO JUMPDEST ISZERO PUSH2 0x299 JUMPI PUSH1 0x40 MLOAD PUSH32 0x8A3648800000000000000000000000000000000000000000000000000000000 DUP2 MSTORE PUSH1 0x4 ADD PUSH1 0x40 MLOAD DUP1 SWAP2 SUB SWAP1 REVERT JUMPDEST PUSH2 0x320 DUP3 LT ISZERO DUP1 ISZERO PUSH2 0x2AD JUMPI POP PUSH2 0x4AF DUP3 GT ISZERO JUMPDEST ISZERO PUSH2 0x2EF JUMPI PUSH1 0x40 MLOAD DUP1 PUSH1 0x40 ADD PUSH1 0x40 MSTORE DUP1 PUSH1 0x8 DUP2 MSTORE PUSH1 0x20 ADD PUSH32 0x4D6F726E696E6721000000000000000000000000000000000000000000000000 DUP2 MSTORE POP SWAP1 POP PUSH2 0x39C JUMP JUMPDEST PUSH2 0x514 DUP3 LT ISZERO DUP1 ISZERO PUSH2 0x303 JUMPI POP PUSH2 0x707 DUP3 GT ISZERO JUMPDEST ISZERO PUSH2 0x345 JUMPI PUSH1 0x40 MLOAD DUP1 PUSH1 0x40 ADD PUSH1 0x40 MSTORE DUP1 PUSH1 0xA DUP2 MSTORE PUSH1 0x20 ADD PUSH32 0x41667465726E6F6F6E2100000000000000000000000000000000000000000000 DUP2 MSTORE POP SWAP1 POP PUSH2 0x39C JUMP JUMPDEST PUSH2 0x708 DUP3 LT ISZERO DUP1 ISZERO PUSH2 0x359 JUMPI POP PUSH2 0x898 DUP3 GT ISZERO JUMPDEST ISZERO PUSH2 0x39B JUMPI PUSH1 0x40 MLOAD DUP1 PUSH1 0x40 ADD PUSH1 0x40 MSTORE DUP1 PUSH1 0x8 DUP2 MSTORE PUSH1 0x20 ADD PUSH32 0x4576656E696E6721000000000000000000000000000000000000000000000000 DUP2 MSTORE POP SWAP1 POP PUSH2 0x39C JUMP JUMPDEST JUMPDEST SWAP2 SWAP1 POP JUMP JUMPDEST PUSH1 0x0 DUP1 REVERT JUMPDEST PUSH1 0x0 DUP2 SWAP1 POP SWAP2 SWAP1 POP JUMP JUMPDEST PUSH2 0x3B9 DUP2 PUSH2 0x3A6 JUMP JUMPDEST DUP2 EQ PUSH2 0x3C4 JUMPI PUSH1 0x0 DUP1 REVERT JUMPDEST POP JUMP JUMPDEST PUSH1 0x0 DUP2 CALLDATALOAD SWAP1 POP PUSH2 0x3D6 DUP2 PUSH2 0x3B0 JUMP JUMPDEST SWAP3 SWAP2 POP POP JUMP JUMPDEST PUSH1 0x0 PUSH1 0x20 DUP3 DUP5 SUB SLT ISZERO PUSH2 0x3F2 JUMPI PUSH2 0x3F1 PUSH2 0x3A1 JUMP JUMPDEST JUMPDEST PUSH1 0x0 PUSH2 0x400 DUP5 DUP3 DUP6 ADD PUSH2 0x3C7 JUMP JUMPDEST SWAP2 POP POP SWAP3 SWAP2 POP POP JUMP JUMPDEST PUSH1 0x0 DUP2 MLOAD SWAP1 POP SWAP2 SWAP1 POP JUMP JUMPDEST PUSH1 0x0 DUP3 DUP3 MSTORE PUSH1 0x20 DUP3 ADD SWAP1 POP SWAP3 SWAP2 POP POP JUMP JUMPDEST PUSH1 0x0 JUMPDEST DUP4 DUP2 LT ISZERO PUSH2 0x443 JUMPI DUP1 DUP3 ADD MLOAD DUP2 DUP5 ADD MSTORE PUSH1 0x20 DUP2 ADD SWAP1 POP PUSH2 0x428 JUMP JUMPDEST PUSH1 0x0 DUP5 DUP5 ADD MSTORE POP POP POP POP JUMP JUMPDEST PUSH1 0x0 PUSH1 0x1F NOT PUSH1 0x1F DUP4 ADD AND SWAP1 POP SWAP2 SWAP1 POP JUMP JUMPDEST PUSH1 0x0 PUSH2 0x46B DUP3 PUSH2 0x409 JUMP JUMPDEST PUSH2 0x475 DUP2 DUP6 PUSH2 0x414 JUMP JUMPDEST SWAP4 POP PUSH2 0x485 DUP2 DUP6 PUSH1 0x20 DUP7 ADD PUSH2 0x425 JUMP JUMPDEST PUSH2 0x48E DUP2 PUSH2 0x44F JUMP JUMPDEST DUP5 ADD SWAP2 POP POP SWAP3 SWAP2 POP POP JUMP JUMPDEST PUSH1 0x0 PUSH1 0x20 DUP3 ADD SWAP1 POP DUP2 DUP2 SUB PUSH1 0x0 DUP4 ADD MSTORE PUSH2 0x4B3 DUP2 DUP5 PUSH2 0x460 JUMP JUMPDEST SWAP1 POP SWAP3 SWAP2 POP POP JUMP JUMPDEST PUSH32 0x4E487B7100000000000000000000000000000000000000000000000000000000 PUSH1 0x0 MSTORE PUSH1 0x12 PUSH1 0x4 MSTORE PUSH1 0x24 PUSH1 0x0 REVERT JUMPDEST PUSH1 0x0 PUSH2 0x4F5 DUP3 PUSH2 0x3A6 JUMP JUMPDEST SWAP2 POP PUSH2 0x500 DUP4 PUSH2 0x3A6 JUMP JUMPDEST SWAP3 POP DUP3 PUSH2 0x510 JUMPI PUSH2 0x50F PUSH2 0x4BB JUMP JUMPDEST JUMPDEST DUP3 DUP3 MOD SWAP1 POP SWAP3 SWAP2 POP POP JUMP JUMPDEST PUSH32 0x4E487B7100000000000000000000000000000000000000000000000000000000 PUSH1 0x0 MSTORE PUSH1 0x1 PUSH1 0x4 MSTORE PUSH1 0x24 PUSH1 0x0 REVERT JUMPDEST PUSH2 0x553 DUP2 PUSH2 0x3A6 JUMP JUMPDEST DUP3 MSTORE POP POP JUMP JUMPDEST PUSH1 0x0 PUSH1 0x20 DUP3 ADD SWAP1 POP PUSH2 0x56E PUSH1 0x0 DUP4 ADD DUP5 PUSH2 0x54A JUMP JUMPDEST SWAP3 SWAP2 POP POP JUMP INVALID LOG2 PUSH5 0x6970667358 0x22 SLT KECCAK256 0xE7 0xC1 ORIGIN RETURNDATASIZE SLOAD CALLER 0xE1 SHL 0xC3 0xB1 0x2F 0xBB SWAP13 PUSH9 0xF7366D23A6F4CCC079 CALLDATALOAD BALANCE 0x5F CALLDATALOAD 0xD7 PUSH3 0x581133 PUSH5 0x736F6C6343 STOP ADDMOD GT STOP CALLER "
				},
				"gasEstimates": {
					"creation": {
						"codeDepositCost": "290000",
						"executionCost": "331",
						"totalCost": "290331"
					},
					"external": {
						"doNotDisturb(uint256)": "infinite",
						"fizzBuzz(uint256)": "infinite"
					}
				},
				"methodIdentifiers": {
					"doNotDisturb(uint256)": "e655b7bb",
					"fizzBuzz(uint256)": "440c93e2"
				}
			},
			"storageLayout": {
				"storage": [],
				"types": null
			},
			"userdoc": {
				"kind": "user",
				"methods": {},
				"version": 1
			}
		}
	}
}